---
title: "ACER 5630 - ENE Card Reader"
date: 2009-11-10
forum: Hardware
---

### Post by bigb_thedestroyer on 2009-11-10
I have an Acer 5630 running Hardy 8.04LTS and I cannot get my sdcard reader to work. My specs are Intel Core2 Duo 1.67 GHZ with 2 GB Ram, Intel 945GM, and Intel 8XXX wireless network card.  

My card reader is a 5 in 1 from ENE.  Is there a know solution for getting a 5 in 1 card reader to work?  I have posted my info below using
```
lspvi -vvxxx
```  If anyone knows where else I can look please send the info my way.

```
06:04.4 FLASH memory: ENE Technology Inc SD/MMC Card Reader Controller (rev 01)
	Subsystem: Acer Incorporated [ALI] Unknown device 0090
	Control: I/O- Mem+ BusMaster- SpecCycle- MemWINV- VGASnoop- ParErr- Stepping- SERR- FastB2B-
	Status: Cap+ 66MHz- UDF- FastB2B- ParErr- DEVSEL=medium >TAbort- <TAbort- <MAbort- >SERR- <PERR-
	Interrupt: pin B routed to IRQ 16
	Region 0: Memory at d0003100 (32-bit, non-prefetchable) [size=256]
	Capabilities: [80] Power Management version 2
		Flags: PMEClk- DSI- D1+ D2+ AuxCurrent=0mA PME(D0+,D1+,D2+,D3hot+,D3cold-)
		Status: D0 PME-Enable- DSel=0 DScale=0 PME-
00: 24 15 51 05 02 00 10 02 01 00 01 05 00 00 80 00
10: 00 31 00 d0 00 00 00 00 00 00 00 00 00 00 00 00
20: 00 00 00 00 00 00 00 00 00 00 00 00 25 10 90 00
30: 00 00 00 00 80 00 00 00 00 00 00 00 ff 02 20 48
40: 00 00 00 00 00 00 00 00 00 00 00 00 00 00 00 00
50: 00 00 00 00 00 00 00 00 00 00 00 00 00 00 00 00
60: 00 00 00 00 00 00 00 00 00 00 00 00 00 00 00 00
70: 00 00 00 00 00 00 00 00 00 00 00 00 00 00 00 00
80: 01 00 02 7e 00 00 00 00 00 00 00 00 00 00 00 00
90: 1a 21 e0 01 ff 00 00 00 00 00 00 1c 00 00 00 00
a0: 00 00 00 00 00 00 00 00 00 00 00 00 00 00 00 00
b0: 00 00 00 00 00 00 00 00 00 00 00 00 00 00 00 00
c0: 00 00 00 00 00 00 00 00 00 00 00 00 00 00 00 00
d0: 00 00 00 00 00 00 00 00 00 00 00 00 00 00 00 00
e0: 00 00 00 00 00 00 00 00 00 00 00 00 00 00 00 00
f0: 00 00 00 00 00 00 00 00 00 00 00 00 00 00 00 00

```

---

### Post by bigb_thedestroyer on 2009-11-12
bump

---

